:100000000C942A000C940F070C943F000C943F00B2
:100010000C943F000C943F000C943F000C943F0064
:100020000C943F000C943F000C943F000C943F0054
:100030000C943F000C943F000C943F000C943F0044
:100040000C943F000C943F000C943F000C943F0034
:100050000C943F0011241FBECFE5D8E0DEBFCDBF1A
:1000600011E0A0E6B0E0EAEFF1E302C005900D92E6
:10007000A638B107D9F70E943A070C94FB180C94E4
:100080000000EF92FF920F931F937B018C0120E001
:1000900030E040E05FE40E94ED0388238CF0C8016B
:1000A000B70120E030E040E05FE40E94B9010E9427
:1000B0004D049B01AC01205030404040504806C0E8
:1000C000C801B7010E944D049B01AC01B901CA01EE
:1000D0001F910F91FF90EF900895A0E0B0E0E3E74B
:1000E000F0E00C942316DC012B01FA019C91923074
:1000F00008F439C1EB018881823008F433C19430AF
:1001000069F4843009F02FC111969C91119789816F
:10011000981709F428C1AEE6B0E025C1843009F48F
:1001200021C18230A9F4923009F01DC19A01AD01BC
:1001300088E0EA010990AE01E90109929E0181502F
:10014000C1F7E201898111969C918923818308C1BD
:10015000923009F407C112962D903C901397EB0151
:100160008A819B811496AD90BD90CD90DC901797BD
:10017000EC80FD800E811F819101281B390BB90194
:1001800037FF04C066277727621B730B6032710547
:100190000CF061C0121613066CF537014801062EEB
:1001A00004C096948794779467940A94D2F721E0D8
:1001B00030E040E050E004C0220F331F441F551FC1
:1001C0006A95D2F721503040404050402E213F21C7
:1001D00040235123211531054105510521F021E02E
:1001E00030E040E050E079018A01E628F72808294C
:1001F00019293CC0232BD1F1260E371E35014601AB
:10020000062E04C096948794779467940A94D2F744
:1002100021E030E040E050E004C0220F331F441FD3
:10022000551F6A95D2F721503040404050402A2156
:100230003B214C215D21211531054105510521F05E
:1002400021E030E040E050E059016A01A628B728DB
:10025000C828D9280BC0821593052CF01C01AA24AC
:10026000BB24650103C0EE24FF24870111969C91F5
:10027000D20111968C91981709F445C0992339F051
:10028000A80197012A193B094C095D0906C0A6017E
:1002900095012E193F09400B510B57FD08C01182E3
:1002A0003382228224833583468357831DC081E0B5
:1002B00081833382228288279927DC01821B930B5A
:1002C000A40BB50B84839583A683B7830DC0220F3F
:1002D000331F441F551F24833583468357838281F0
:1002E000938101979383828324813581468157814D
:1002F000DA01C9010197A109B1098F5F9F4FAF4F83
:10030000BF4328F30BC0918333822282EA0CFB1C8B
:100310000C1D1D1DE482F5820683178383E0808314
:10032000248135814681578157FF1AC0C901AA2708
:1003300097FDA095BA2F81709070A070B0705695FF
:10034000479537952795822B932BA42BB52B848328
:100350009583A683B7838281938101969383828359
:10036000DF0101C0D201CD01CDB7DEB7E2E10C94CF
:100370003F16A0E2B0E0EFEBF1E00C942F1669839A
:100380007A838B839C832D833E834F835887E9E058
:10039000EE2EF12CEC0EFD1ECE010196B7010E944F
:1003A0003E068E010F5E1F4FCE010596B8010E94DA
:1003B0003E068A8991E089278A8BC701B801AE0180
:1003C000475E5F4F0E946D000E946905A096E6E0BF
:1003D0000C944B16A0E2B0E0E0EFF1E00C942F1685
:1003E00069837A838B839C832D833E834F835887D5
:1003F000F9E0EF2EF12CEC0EFD1ECE010196B701B7
:100400000E943E068E010F5E1F4FCE010596B80179
:100410000E943E06C701B801AE01475E5F4F0E94D1
:100420006D000E946905A096E6E00C944B16A0E2D0
:10043000B0E0EDE1F2E00C94231669837A838B83BC
:100440009C832D833E834F835887CE010196BE0146
:10045000675F7F4F0E943E06CE010596BE016F5E2C
:100460007F4F0E943E069985923088F089898230BC
:10047000C8F0943019F4823051F404C0843029F467
:10048000923081F48EE690E0C6C0923049F420E0CC
:100490009A858A89981321E02A87CE010996BBC0E4
:1004A000823049F420E09A858A89981321E02A8BCA
:1004B000CE014196B0C02D843E844F8458886D880B
:1004C0007E888F88988CEE24FF248701AA24BB2481
:1004D000650140E050E060E070E0E0E0F0E0C10184
:1004E00081709070892BE9F0E60CF71C081D191D2E
:1004F0009A01AB012A0D3B1D4C1D5D1D80E090E073
:10050000A0E0B0E0E614F7040805190520F481E046
:1005100090E0A0E0B0E0BA01A901480F591F6A1F9E
:100520007B1FAA0CBB1CCC1CDD1C97FE08C081E005
:1005300090E0A0E0B0E0A82AB92ACA2ADB2A3196C6
:10054000E032F10549F0660C771C881C991C569422
:10055000479437942794C3CFFA85EA892B893C893D
:100560008B859C85280F391F2E5F3F4F17C0CA010E
:1005700081709070892B61F016950795F794E79438
:1005800080E090E0A0E0B0E8E82AF92A0A2B1B2BD3
:1005900076956795579547952F5F3F4F77FDE7CF46
:1005A0000CC0440F551F661F771F17FD4160EE0CEE
:1005B000FF1C001F111F21503040403090E05907B0
:1005C00090E0690790E4790760F32B8F3C8FDB01A3
:1005D000CA018F779070A070B07080349105A1052A
:1005E000B10561F447FD0AC0E114F10401051105EC
:1005F00029F0405C5F4F6F4F7F4F40781A8EFE1797
:1006000011F081E08A8F4D8F5E8F6F8F78A383E02A
:10061000898FCE0149960E946905A096E2E10C946B
:100620003F16A8E1B0E0E7E1F3E00C942B166983F4
:100630007A838B839C832D833E834F835887B9E0D5
:10064000EB2EF12CEC0EFD1ECE010196B7010E949F
:100650003E068E010F5E1F4FCE010596B8010E9427
:100660003E062985223008F47EC03989323010F4E4
:10067000B8017CC08A859A8989278A87243011F03D
:10068000223031F4231709F06EC06EE670E06EC0C0
:10069000343039F41D861E861F86188A1C861B86F8
:1006A00004C0323021F484E08987B7015FC02B8514
:1006B0003C858B899C89281B390B3C872B87ED84D3
:1006C000FE840F851889AD88BE88CF88D88CEA143F
:1006D000FB040C051D0540F4EE0CFF1C001F111F50
:1006E000215030403C872B8720E030E040E050E054
:1006F00080E090E0A0E0B0E460E070E0EA14FB0489
:100700000C051D0540F0282B392B4A2B5B2BEA18D2
:10071000FB080C091D09B695A79597958795EE0CD2
:10072000FF1C001F111F6F5F7F4F6F31710531F785
:10073000DA01C9018F779070A070B0708034910594
:10074000A105B10561F427FD0AC0E114F10401051A
:10075000110529F0205C3F4F4F4F5F4F20782D87C8
:100760003E874F87588BBE01675F7F4FCB010E944A
:1007700069056896EAE00C944716A8E1B0E0E3EC5E
:10078000F3E00C942F1669837A838B839C832D83EB
:100790003E834F83588789E0E82EF12CEC0EFD1E36
:1007A000CE010196B7010E943E068E010F5E1F4FDB
:1007B000CE010596B8010E943E068985823040F040
:1007C0008989823028F0C701B8010E94B60601C0AD
:1007D0008FEF6896E6E00C944B16A8E1B0E0E3EFEB
:1007E000F3E00C942F1669837A838B839C832D838B
:1007F0003E834F83588789E0E82EF12CEC0EFD1ED6
:10080000CE010196B7010E943E068E010F5E1F4F7A
:10081000CE010596B8010E943E068985823040F0DF
:100820008989823028F0C701B8010E94B60601C04C
:100830008FEF6896E6E00C944B16A8E1B0E0E3E297
:10084000F4E00C942F1669837A838B839C832D8329
:100850003E834F83588789E0E82EF12CEC0EFD1E75
:10086000CE010196B7010E943E068E010F5E1F4F1A
:10087000CE010596B8010E943E068985823040F07F
:100880008989823028F0C701B8010E94B60601C0EC
:1008900081E06896E6E00C944B16ACE0B0E0E3E54E
:1008A000F4E00C94331669837A838B839C83CE01A6
:1008B0000196BE016B5F7F4F0E943E068D818230A4
:1008C00061F1823050F1843021F48E81882351F11E
:1008D0002EC02F81388537FD20C06E812F31310524
:1008E0001CF06623F9F023C08EE190E0821B930B8D
:1008F00029853A854B855C8504C056954795379583
:1009000027958A95D2F76623B1F05095409530959A
:1009100021953F4F4F4F5F4F0EC020E030E040E049
:1009200050E009C02FEF3FEF4FEF5FE704C020E03A
:1009300030E040E050E8B901CA012C96E2E00C94A6
:100940004F16A8E0B0E0E7EAF4E00C942B167B0128
:100950008C01611571058105910519F482E0898387
:1009600060C083E089838EE1C82ED12CDC82CB82EB
:10097000ED82FE820F831887C801B7010E941A0515
:10098000FC013197F7FF3BC0222733272E1B3F0B7B
:1009900057016801022E04C0D694C794B794A79457
:1009A0000A94D2F740E050E060E070E081E090E02F
:1009B000A0E0B0E004C0880F991FAA1FBB1F2A95B2
:1009C000D2F70197A109B1098E219F21A023B1235C
:1009D0000097A105B10521F041E050E060E070E032
:1009E0004A295B296C297D294D835E836F83788733
:1009F0008EE190E08E1B9F0B9C838B8312C03097FF
:100A000081F00E2E04C0EE0CFF1C001F111F0A9473
:100A1000D2F7ED82FE820F831887CE1ADF0ADC82BE
:100A2000CB821A82CE0101960E9469052896EAE0DF
:100A30000C944716EF92FF920F931F937B018C014A
:100A400080E0E81680E0F80681E0080780E01807FB
:100A500088F48FEFE816F1040105110531F028F054
:100A600088E090E0A0E0B0E017C080E090E0A0E077
:100A7000B0E012C080E0E81680E0F80680E00807E9
:100A800081E0180728F088E190E0A0E0B0E004C021
:100A900080E190E0A0E0B0E020E230E040E050E013
:100AA000281B390B4A0B5B0B04C016950795F7946E
:100AB000E7948A95D2F7F701EA58FF4F8081281B07
:100AC000310941095109C9011F910F91FF90EF9020
:100AD0000895DF92EF92FF920F931F93FC01E48041
:100AE000F58006811781D1808081823048F480E0D2
:100AF00090E0A0E1B0E0E82AF92A0A2B1B2BA5C060
:100B0000843009F49FC0823021F4EE24FF24870151
:100B100005C0E114F1040105110519F4E0E0F0E06D
:100B200096C0628173819FEF623879070CF05BC0D9
:100B300022E83FEF261B370B2A3131052CF020E04D
:100B400030E040E050E02AC0B801A701022E04C006
:100B500076956795579547950A94D2F781E090E08E
:100B6000A0E0B0E004C0880F991FAA1FBB1F2A9500
:100B7000D2F70197A109B1098E219F21A023B123AA
:100B80000097A105B10521F081E090E0A0E0B0E080
:100B90009A01AB01282B392B4A2B5B2BDA01C901B7
:100BA0008F779070A070B07080349105A105B10569
:100BB00039F427FF09C0205C3F4F4F4F5F4F04C0FF
:100BC000215C3F4F4F4F5F4FE0E0F0E02030A0E06E
:100BD0003A07A0E04A07A0E45A0710F0E1E0F0E08D
:100BE00079018A0127C06038710564F5FB01E1587D
:100BF000FF4FD801C7018F779070A070B07080341C
:100C00009105A105B10539F4E7FE0DC080E490E03F
:100C1000A0E0B0E004C08FE390E0A0E0B0E0E80E18
:100C2000F91E0A1F1B1F17FF05C016950795F7949D
:100C3000E794319687E016950795F794E7948A959F
:100C4000D1F705C0EE24FF248701EFEFF0E06E2F0F
:100C5000679566276795902F9F77D794DD24D79463
:100C60008E2F8695492F462B582F5D29B701CA0133
:100C70001F910F91FF90EF90DF900895FC01DB0131
:100C8000408151812281622F6F7770E0221F2227DD
:100C9000221F9381892F880F822B282F30E0991FE4
:100CA0009927991F11969C93119721153105A9F544
:100CB000411551056105710511F482E037C082E8E4
:100CC0009FEF13969C938E9312979A01AB0167E066
:100CD000220F331F441F551F6A95D1F783E08C9371
:100CE0000DC0220F331F441F551F12968D919C91EA
:100CF0001397019713969C938E931297203080E060
:100D0000380780E0480780E4580758F314962D937D
:100D10003D934D935C93179708952F3F310579F4D8
:100D2000411551056105710519F484E08C9308950E
:100D300064FF03C081E08C9312C01C9210C02F5737
:100D4000304013963C932E93129783E08C9387E068
:100D5000440F551F661F771F8A95D1F7706414964C
:100D60004D935D936D937C93179708951F93DC01CA
:100D7000FB019C91923008F447C08081823008F4D6
:100D800043C0943051F411961C91843099F58181BF
:100D9000682F70E0611B71093FC0843021F09230F0
:100DA00031F48230B9F18181882389F12DC0119607
:100DB0001C9111978230F1F081811817D9F41296A5
:100DC0002D913C911397828193818217930794F020
:100DD00028173907BCF014968D919D910D90BC9108
:100DE000A02D2481358146815781281739074A076C
:100DF0005B0718F4112341F00AC082179307A40778
:100E0000B50740F4112319F061E070E005C06FEF01
:100E10007FEF02C060E070E0CB011F9108951F9248
:100E20000F920FB60F9211242F933F934F935F931E
:100E30006F937F938F939F93AF93BF93EF93FF93A2
:100E4000DF93CF93CDB7DEB781E00E94DB0ACF916D
:100E5000DF91FF91EF91BF91AF919F918F917F9122
:100E60006F915F914F913F912F910F900FBE0F9017
:100E70001F901895DF93CF93CDB7DEB764970FB669
:100E8000F894DEBF0FBECDBF80E090E0A0E0B0E000
:100E90008F87988BA98BBA8B0E94090BA6E2B0E0D2
:100EA000E6E2F0E0808180688C93A6E2B0E0E6E2C2
:100EB000F0E0808187608C93A7E2B0E0E7E2F0E0A9
:100EC000808180648C93A7E2B0E0E7E2F0E080816B
:100ED00081608C93A6E2B0E0E6E2F0E0808180647D
:100EE0008C93E6E2F0E0808182958F70882F90E00D
:100EF000817090700097A9F3A6E2B0E0E6E2F0E01E
:100F0000808180618C93E4E2F0E08081282F30E0E2
:100F1000E5E2F0E08081882F90E0982F8827822BEF
:100F2000932B9C8B8B8B8B899C89CC01A0E0B0E0B0
:100F3000BC01CD010E94A104DC01CB01BC01CD01AB
:100F40002AE939E949E950E40E941702DC01CB01A2
:100F50008F87988BA98BBA8B6F85788989899A89B5
:100F600020E030E04AE754E40E941103DC01CB01A9
:100F70008F87988BA98BBA8B80E060E00E94900EDF
:100F800080E690E00E94B70E80E060E00E94900E44
:100F90008F859889A989BA89BC01CD010E94130F58
:100FA00080E090E0A8ECB2E48B879C87AD87BE8799
:100FB0006B857C858D859E8520E030E04AE755E491
:100FC0000E941702DC01CB018F839887A987BA871B
:100FD0006F81788589859A8520E030E040E85FE37D
:100FE0000E941D0488232CF481E090E09E838D8371
:100FF0003FC06F81788589859A8520E03FEF4FE774
:1010000057E40E94BD0318164CF56B857C858D85D1
:101010009E8520E030E040E251E40E941702DC01AE
:10102000CB01BC01CD010E944100DC01CB019E83BC
:101030008D830FC080E991E09C838B838B819C81A1
:101040000197F1F79C838B838D819E8101979E830D
:101050008D838D819E81009769F73CCF6F81788564
:1010600089859A850E944100DC01CB019E838D8396
:101070008D819E819A83898389819A810197F1F775
:101080009A83898327CFDF93CF93CDB7DEB781E0F3
:1010900061E041E00E94681281E062E041E00E946C
:1010A000681280E064E041E00E94681280E065E040
:1010B00041E00E94681280E066E041E00E94681210
:1010C00080E067E041E00E946812CF91DF910895CF
:1010D000DF93CF93CDB7DEB7E3970FB6F894DEBFBB
:1010E0000FBECDBF8BAB8BA99AE0692F0E9417165C
:1010F000892F8295807F8AAB8BA99AE0692F0E9405
:1011000017168295807F89AB81E062E041E00E9402
:101110004B1381E061E040E00E944B1380E069A93D
:101120004FE00E942E1480E090E0AAEFB3E48DA778
:101130009EA7AFA7B8AB6DA57EA58FA598A92BEAF2
:101140003AEA4AEA50E40E941702DC01CB0189A77F
:101150009AA7ABA7BCA769A57AA58BA59CA520E0FB
:1011600030E040E85FE30E941D0488231CF481E026
:1011700088A791C069A57AA58BA59CA520E030E041
:101180004FE753E40E94BD0318160CF07BC06DA519
:101190007EA58FA598A920E030E04AE754E40E949C
:1011A0001103DC01CB018CA39DA3AEA3BFA36CA153
:1011B0007DA18EA19FA120E030E04AE755E40E9486
:1011C0001702DC01CB0188A399A3AAA3BBA368A142
:1011D00079A18AA19BA120E030E040E85FE30E9472
:1011E0001D0488232CF481E090E09F8F8E8F3FC0F8
:1011F00068A179A18AA19BA120E03FEF4FE757E4C6
:101200000E94BD0318164CF56CA17DA18EA19FA173
:1012100020E030E040E251E40E941702DC01CB0103
:10122000BC01CD010E944100DC01CB019F8F8E8F5C
:101230000FC080E991E09D8F8C8F8C8D9D8D0197E3
:10124000F1F79D8F8C8F8E8D9F8D01979F8F8E8F45
:101250008E8D9F8D009769F724C068A179A18AA11E
:101260009BA10E944100DC01CB019F8F8E8F8E8D50
:101270009F8D9B8F8A8F8A8D9B8D0197F1F79B8F16
:101280008A8F0FC069A57AA58BA59CA50E944100F5
:10129000DC01CB0188A788A5898F898D8A95F1F714
:1012A000898F81E062E040E00E944B1381E061E0C1
:1012B00041E00E944B1380E06AA94FE00E942E1487
:1012C00080E090E0AAEFB3E48D8B9E8BAF8BB88F5C
:1012D0006D897E898F89988D2BEA3AEA4AEA50E433
:1012E0000E941702DC01CB01898B9A8BAB8BBC8BE4
:1012F00069897A898B899C8920E030E040E85FE346
:101300000E941D0488231CF481E0888B91C06989A8
:101310007A898B899C8920E030E04FE753E40E9472
:10132000BD0318160CF07BC06D897E898F89988D5E
:1013300020E030E04AE754E40E941103DC01CB01D5
:101340008C879D87AE87BF876C857D858E859F85C1
:1013500020E030E04AE755E40E941702DC01CB01AF
:1013600088879987AA87BB87688579858A859B85C1
:1013700020E030E040E85FE30E941D0488232CF465
:1013800081E090E09F838E833FC0688579858A8560
:101390009B8520E03FEF4FE757E40E94BD031816FE
:1013A0004CF56C857D858E859F8520E030E040E2A0
:1013B00051E40E941702DC01CB01BC01CD010E9467
:1013C0004100DC01CB019F838E830FC080E991E057
:1013D0009D838C838C819D810197F1F79D838C8304
:1013E0008E819F8101979F838E838E819F8100973D
:1013F00069F724C0688579858A859B850E944100AC
:10140000DC01CB019F838E838E819F819B838A83A6
:101410008A819B810197F1F79B838A830FC0698939
:101420007A898B899C890E944100DC01CB01888BE1
:101430008889898389818A95F1F78983E3960FB634
:10144000F894DEBF0FBECDBFCF91DF910895DF933B
:10145000CF93CDB7DEB729970FB6F894DEBF0FBE96
:10146000CDBF8D834E835F836887798719821A8207
:101470001B821C8219821A821B821C820EC08D81E3
:101480000E94680889819A81AB81BC810196A11D67
:10149000B11D89839A83AB83BC8329813A814B81B7
:1014A0005C818E819F81A885B985281739074A07F5
:1014B0005B0728F329960FB6F894DEBF0FBECDBFA9
:1014C000CF91DF910895DF93CF93CDB7DEB782E060
:1014D00062E041E00E94681282E067E041E00E9421
:1014E000681283E063E041E00E946812CF91DF91CF
:1014F0000895DF93CF9300D00F92CDB7DEB78983E5
:101500008981282F30E03B832A838A819B81813027
:10151000910579F02A813B812230310581F08A8161
:101520009B81009789F482E062E041E00E944B13C6
:101530000BC082E067E041E00E944B1305C083E0EE
:1015400063E041E00E944B130F900F900F90CF91FA
:10155000DF910895DF93CF9300D00F92CDB7DEB720
:1015600089838981282F30E03B832A838A819B816C
:101570008130910579F02A813B812230310581F05B
:101580008A819B81009789F482E062E040E00E94BA
:101590004B130BC082E067E040E00E944B1305C094
:1015A00083E063E040E00E944B130F900F900F9098
:1015B000CF91DF910895DF93CF9300D00F92CDB7F5
:1015C000DEB789838981282F30E03B832A838A8193
:1015D0009B818130910571F02A813B812230310558
:1015E00071F08A819B81009771F482E062E00E9431
:1015F0001D1509C082E067E00E941D1504C083E04C
:1016000063E00E941D150F900F900F90CF91DF9116
:101610000895DF93CF93CDB7DEB7E4970FB6F89474
:10162000DEBF0FBECDBF81E061E041E00E946812E5
:1016300081E062E041E00E94681281E063E041E005
:101640000E94681280E064E041E00E94681280E03D
:1016500065E041E00E94681280E066E041E00E949F
:10166000681280E067E041E00E94681281E062E079
:1016700040E00E944B1380E090E0A0E7B1E489AB2A
:101680009AABABABBCAB69A97AA98BA99CA920E0AA
:1016900030E04AE755E40E941702DC01CB018DA738
:1016A0009EA7AFA7B8AB6DA57EA58FA598A920E092
:1016B00030E040E85FE30E941D0488232CF481E0C1
:1016C00090E09CA78BA73FC06DA57EA58FA598A98C
:1016D00020E03FEF4FE757E40E94BD0318164CF59A
:1016E00069A97AA98BA99CA920E030E040E251E4E5
:1016F0000E941702DC01CB01BC01CD010E94410018
:10170000DC01CB019CA78BA70FC080E991E09AA7D1
:1017100089A789A59AA50197F1F79AA789A78BA50B
:101720009CA501979CA78BA78BA59CA5009769F703
:1017300014C06DA57EA58FA598A90E944100DC016B
:10174000CB019CA78BA78BA59CA598A78FA38FA146
:1017500098A50197F1F798A78FA383E00E94690EDF
:1017600080E090E0A0EAB0E48BA39CA3ADA3BEA36D
:101770006BA17CA18DA19EA120E030E04AE755E459
:101780000E941702DC01CB018F8F98A3A9A3BAA3F3
:101790006F8D78A189A19AA120E030E040E85FE355
:1017A0000E941D0488232CF481E090E09E8F8D8F91
:1017B0003FC06F8D78A189A19AA120E03FEF4FE74C
:1017C00057E40E94BD0318164CF56BA17CA18DA1B6
:1017D0009EA120E030E040E251E40E941702DC01CB
:1017E000CB01BC01CD010E944100DC01CB019E8FE9
:1017F0008D8F0FC080E991E09C8F8B8F8B8D9C8D9E
:101800000197F1F79C8F8B8F8D8D9E8D01979E8F09
:101810008D8F8D8D9E8D009769F714C06F8D78A187
:1018200089A19AA10E944100DC01CB019E8F8D8F7E
:101830008D8D9E8D9A8F898F898D9A8D0197F1F765
:101840009A8F898F83E00E94690E80E090E0A8EC77
:10185000B2E48D8B9E8BAF8BB88F6D897E898F891B
:10186000988D2BEA3AEA4AEA50E40E941702DC011A
:10187000CB01898B9A8BAB8BBC8B69897A898B89DD
:101880009C8920E030E040E85FE30E941D0488234B
:101890001CF481E0888B91C069897A898B899C8945
:1018A00020E030E04FE753E40E94BD0318160CF02F
:1018B0007BC06D897E898F89988D20E030E04AE772
:1018C00054E40E941103DC01CB018C879D87AE8715
:1018D000BF876C857D858E859F8520E030E04AE757
:1018E00055E40E941702DC01CB0188879987AA87FB
:1018F000BB87688579858A859B8520E030E040E854
:101900005FE30E941D0488232CF481E090E09F8314
:101910008E833FC0688579858A859B8520E03FEF6F
:101920004FE757E40E94BD0318164CF56C857D8582
:101930008E859F8520E030E040E251E40E9417024E
:10194000DC01CB01BC01CD010E944100DC01CB01D7
:101950009F838E830FC080E991E09D838C838C816F
:101960009D810197F1F79D838C838E819F810197E3
:101970009F838E838E819F81009769F724C068853D
:1019800079858A859B850E944100DC01CB019F837C
:101990008E838E819F819B838A838A819B8101971D
:1019A000F1F79B838A830FC069897A898B899C8927
:1019B0000E944100DC01CB01888B88898983898161
:1019C0008A95F1F7898383E00E94690E82E00E9484
:1019D000690E88E20E94690EE4960FB6F894DEBFA5
:1019E0000FBECDBFCF91DF910895DF93CF93CDB7D9
:1019F000DEB7A6970FB6F894DEBF0FBECDBF81E06D
:101A000063E041E00E944B1380E090E0A0E8BFE378
:101A10008BA39CA3ADA3BEA36BA17CA18DA19EA112
:101A20002BEA3AEA4AEA50E40E941702DC01CB01B1
:101A30008F8F98A3A9A3BAA36F8D78A189A19AA12A
:101A400020E030E040E85FE30E941D0488231CF49E
:101A500081E08E8F91C06F8D78A189A19AA120E03D
:101A600030E04FE753E40E94BD0318160CF07BC032
:101A70006BA17CA18DA19EA120E030E04AE754E457
:101A80000E941103DC01CB018A8F9B8FAC8FBD8F2D
:101A90006A8D7B8D8C8D9D8D20E030E04AE755E48A
:101AA0000E941702DC01CB018E8B9F8BA88FB98F10
:101AB0006E897F89888D998D20E030E040E85FE372
:101AC0000E941D0488232CF481E090E09D8B8C8B78
:101AD0003FC06E897F89888D998D20E03FEF4FE769
:101AE00057E40E94BD0318164CF56A8D7B8D8C8DD2
:101AF0009D8D20E030E040E251E40E941702DC01BD
:101B0000CB01BC01CD010E944100DC01CB019D8BCA
:101B10008C8B0FC080E991E09B8B8A8B8A899B8993
:101B20000197F1F79B8B8A8B8C899D8901979D8BFF
:101B30008C8B8C899D89009769F724C06E897F8979
:101B4000888D998D0E944100DC01CB019D8B8C8B8F
:101B50008C899D89998B888B888999890197F1F760
:101B6000998B888B0FC06F8D78A189A19AA10E9453
:101B70004100DC01CB018E8F8E8D8F878F858A95FA
:101B8000F1F78F8781E063E040E00E944B1380E033
:101B900090E0A0E0B0E48B879C87AD87BE876B8523
:101BA0007C858D859E8520E030E04AE755E40E94E3
:101BB0001702DC01CB018F839887A987BA876F81D1
:101BC000788589859A8520E030E040E85FE30E94CF
:101BD0001D0488232CF481E090E09E838D833FC018
:101BE0006F81788589859A8520E03FEF4FE757E43C
:101BF0000E94BD0318164CF56B857C858D859E85EE
:101C000020E030E040E251E40E941702DC01CB0109
:101C1000BC01CD010E944100DC01CB019E838D837C
:101C20000FC080E991E09C838B838B819C8101971D
:101C3000F1F79C838B838D819E8101979E838D8399
:101C40008D819E81009769F714C06F8178858985A1
:101C50009A850E944100DC01CB019E838D838D819A
:101C60009E819A83898389819A810197F1F79A836A
:101C70008983A6960FB6F894DEBF0FBECDBFCF9175
:101C8000DF910895DF93CF9300D00F92CDB7DEB7E9
:101C90008B838B81807F8A838B818295807F8983F0
:101CA00081E061E041E00E944B1380E06A814FE0F7
:101CB0000E942E140E94F50C80E069814FE00E9482
:101CC0002E140E94F50C0F900F900F90CF91DF9182
:101CD0000895DF93CF9300D00F92CDB7DEB78B83FB
:101CE0008B81807F8A838B818295807F898381E04D
:101CF00061E040E00E944B1380E06A814FE00E9467
:101D00002E140E94F50C80E069814FE00E942E1491
:101D10000E94F50C0F900F900F90CF91DF910895D6
:101D2000DF93CF9300D000D0CDB7DEB789836A832D
:101D30008981282F30E03C832B838B819C81009705
:101D400031F02B813C812130310531F009C08A818D
:101D500080580E94690E04C08A8180540E94690ED6
:101D60000F900F900F900F90CF91DF910895DF9318
:101D7000CF9300D0CDB7DEB79A8389830AC0E981BB
:101D8000FA8180810E94420E89819A8101969A830C
:101D90008983E981FA818081882389F70F900F90E8
:101DA000CF91DF910895DF93CF93CDB7DEB7299719
:101DB0000FB6F894DEBF0FBECDBF6E837F838887DA
:101DC00099878DB79EB708970FB6F8949EBF0FBE40
:101DD0008DBFEDB7FEB73196CE010196918380831A
:101DE00085E690E0938382838E819F81A885B98563
:101DF00084839583A683B7830E945A168DB79EB7B6
:101E000008960FB6F8949EBF0FBE8DBFCE01019607
:101E10000E94B70E29960FB6F894DEBF0FBECDBF55
:101E2000CF91DF910895DF93CF93CDB7DEB72C9795
:101E30000FB6F894DEBF0FBECDBF69877A878B8758
:101E40009C878DB79EB708970FB6F8949EBF0FBEBC
:101E50008DBFEDB7FEB73196CE0101969183808399
:101E600088E690E09383828389859A85AB85BC85DB
:101E700084839583A683B7830E945A168DB79EB735
:101E800008960FB6F8949EBF0FBE8DBFCE01019687
:101E90000E94B70E2C960FB6F894DEBF0FBECDBFD2
:101EA000CF91DF910895DF93CF93CDB7DEB782E076
:101EB00060E040E00E94681282E061E040E00E9441
:101EC000681282E062E040E00E94681282E063E013
:101ED00040E00E94681282E064E041E00E946812E3
:101EE00082E065E041E00E94681282E066E041E045
:101EF0000E94681282E067E041E00E94681282E07E
:101F000060E00E949A1582E061E00E949A1582E0EA
:101F100062E00E949A1582E063E00E949A1582E0D6
:101F200064E040E00E944B1382E065E040E00E94E4
:101F30004B1382E066E040E00E944B1382E067E0D2
:101F400040E00E944B13CF91DF910895DF93CF9330
:101F50000F92CDB7DEB782E060E00E948A1488233A
:101F600091F082E061E00E948A14882361F082E0AF
:101F700062E00E948A14882331F082E063E00E94CC
:101F80008A14882319F481E0898301C01982898128
:101F90000F90CF91DF910895DF93CF930F92CDB73C
:101FA000DEB78FEF898382E060E00E948A14882385
:101FB00011F419821DC082E061E00E948A14882316
:101FC00019F481E0898314C082E062E00E948A14DF
:101FD000882319F482E089830BC082E063E00E94C9
:101FE0008A14882319F483E0898302C08FEF8983E0
:101FF00089810F90CF91DF910895DF93CF9300D027
:10200000CDB7DEB78A838FEF898382E064E040E05A
:102010000E944B1382E065E041E00E944B1382E096
:1020200066E041E00E944B1382E067E041E00E94DD
:102030004B130E94CC0F982F8A81981711F41982A4
:1020400059C082E064E041E00E944B1382E065E009
:1020500040E00E944B1382E066E041E00E944B1397
:1020600082E067E041E00E944B130E94CC0F982F62
:102070008A81981719F481E089833CC082E064E08A
:1020800041E00E944B1382E065E041E00E944B1367
:1020900082E066E040E00E944B1382E067E041E0AE
:1020A0000E944B130E94CC0F982F8A81981719F425
:1020B00082E089831FC082E064E041E00E944B130C
:1020C00082E065E041E00E944B1382E066E041E07F
:1020D0000E944B1382E067E040E00E944B130E9495
:1020E000CC0F982F8A81981719F483E0898302C056
:1020F0008FEF898389810F900F90CF91DF910895A1
:10210000DF93CF9300D00F92CDB7DEB78FEF8B83E5
:102110008FEF8A838FEF89830E94530F0E94A60F4F
:102120008130F1F40E94CC0F8A838A810E94FD0FD6
:1021300089838A81482F552747FD50958981282F0B
:10214000332727FD3095CA01880F991F880F991FE3
:10215000820F931FFC01EA58FE4F80818B8302C0DF
:102160008FEF8B838B810F900F900F90CF91DF912A
:102170000895DF93CF93CDB7DEB780E063E041E011
:102180000E946812CF91DF910895DF93CF93CDB76E
:10219000DEB780E063E041E00E944B13CF91DF9116
:1021A0000895DF93CF93CDB7DEB780E063E040E0E2
:1021B0000E944B13CF91DF910895DF93CF93CDB75A
:1021C000DEB781E060E040E00E94681283E066E0F4
:1021D00040E00E94681283E062E040E00E946812E2
:1021E000CF91DF910895DF93CF9300D000D0CDB78A
:1021F000DEB78A8319828A81282F30E03C832B83C3
:102200008B819C8181309105A1F02B813C81223012
:102210003105D1F08B819C81009701F581E060E070
:102220000E948A14813019F481E0898317C01982D1
:1022300015C083E066E00E948A14813019F481E0C1
:1022400089830CC019820AC083E062E00E948A146C
:10225000813019F481E0898301C0198289810F904E
:102260000F900F900F90CF91DF910895DF93CF9350
:10227000CDB7DEB7AFE5B0E0EFE5F0E08081806894
:102280008C93CF91DF910895DF93CF93CDB7DEB7D5
:10229000AFE5B0E0EFE5F0E080818F778C93CF91F0
:1022A000DF910895DF93CF9300D000D0CDB7DEB794
:1022B00089836A838981282F30E03C832B838B813B
:1022C0009C818130910509F45AC02B813C812230D8
:1022D000310509F4A3C08B819C81009709F0BAC035
:1022E0008A81813079F4A5E5B0E0E5E5F0E0808110
:1022F00081608C93A5E5B0E0E5E5F0E08081826047
:102300008C9335C08A81882379F4A5E5B0E0E5E5B2
:10231000F0E080818E7F8C93A5E5B0E0E5E5F0E00C
:10232000808182608C9323C08A81823079F4A5E514
:10233000B0E0E5E5F0E0808181608C93A5E5B0E058
:10234000E5E5F0E080818D7F8C9311C08A81833038
:1023500071F4A5E5B0E0E5E5F0E080818E7F8C9337
:10236000A5E5B0E0E5E5F0E080818D7F8C93ABE5FD
:10237000B0E0EBE5F0E0808180648C936BC08A81F3
:10238000813079F4A5E5B0E0E5E5F0E08081846096
:102390008C93A5E5B0E0E5E5F0E0808188608C9362
:1023A00035C08A81882379F4A5E5B0E0E5E5F0E061
:1023B00080818B7F8C93A5E5B0E0E5E5F0E080813E
:1023C00088608C9323C08A81823079F4A5E5B0E0DF
:1023D000E5E5F0E0808184608C93A5E5B0E0E5E57B
:1023E000F0E08081877F8C9311C08A81833071F403
:1023F000A5E5B0E0E5E5F0E080818B7F8C93A5E575
:10240000B0E0E5E5F0E08081877F8C93ABE5B0E05C
:10241000EBE5F0E0808180688C931CC08A81882382
:1024200041F4A4E5B0E0E4E5F0E080818F7B8C939B
:102430000AC08A81813039F4A4E5B0E0E4E5F0E037
:10244000808180648C93ABE5B0E0EBE5F0E08081C7
:1024500080628C930F900F900F900F90CF91DF912F
:102460000895DF93CF9300D00F92CDB7DEB7898365
:102470008981282F30E03B832A838A819B818130A8
:10248000910589F02A813B8122303105A1F08A81B2
:102490009B810097B9F4ABE5B0E0EBE5F0E080811B
:1024A00080648C930FC0ABE5B0E0EBE5F0E0808199
:1024B00080688C9307C0ABE5B0E0EBE5F0E080818D
:1024C00080628C930F900F900F90CF91DF910895C1
:1024D000DF93CF9300D000D00F92CDB7DEB78983C2
:1024E0006A834B838981282F30E03D832C838C8144
:1024F0009D818130910509F443C02C813D812230BA
:1025000031052CF48C819D81009771F0BCC02C8129
:102510003D812230310509F45FC08C819D8183307B
:10252000910509F485C0AFC08B818823A9F4AAE383
:10253000B0E0EAE3F0E08081482F8A81282F30E084
:1025400081E090E0022E02C0880F991F0A94E2F702
:10255000809584238C9397C0AAE3B0E0EAE3F0E08F
:102560008081482F8A81282F30E081E090E0022E80
:1025700002C0880F991F0A94E2F7842B8C9383C0C2
:102580008B818823A9F4A7E3B0E0E7E3F0E0808142
:10259000482F8A81282F30E081E090E0022E02C08F
:1025A000880F991F0A94E2F7809584238C936BC05F
:1025B000A7E3B0E0E7E3F0E08081482F8A81282F8D
:1025C00030E081E090E0022E02C0880F991F0A944B
:1025D000E2F7842B8C9357C08B818823A9F4A4E362
:1025E000B0E0E4E3F0E08081482F8A81282F30E0DA
:1025F00081E090E0022E02C0880F991F0A94E2F752
:10260000809584238C933FC0A4E3B0E0E4E3F0E042
:102610008081482F8A81282F30E081E090E0022ECF
:1026200002C0880F991F0A94E2F7842B8C932BC069
:102630008B818823A9F4A1E3B0E0E1E3F0E080819D
:10264000482F8A81282F30E081E090E0022E02C0DE
:10265000880F991F0A94E2F7809584238C9313C006
:10266000A1E3B0E0E1E3F0E08081482F8A81282FE8
:1026700030E081E090E0022E02C0880F991F0A949A
:10268000E2F7842B8C930F900F900F900F900F9088
:10269000CF91DF910895DF93CF9300D000D00F92B8
:1026A000CDB7DEB789836A834B838981282F30E0D9
:1026B0003D832C838C819D818130910509F443C039
:1026C0002C813D81223031052CF48C819D81009735
:1026D00071F0BCC02C813D812230310509F45FC00E
:1026E0008C819D818330910509F485C0AFC08B81B9
:1026F0008130A1F4ABE3B0E0EBE3F0E08081482F60
:102700008A81282F30E081E090E0022E02C0880FFD
:10271000991F0A94E2F7842B8C9398C0ABE3B0E046
:10272000EBE3F0E08081482F8A81282F30E081E0C0
:1027300090E0022E02C0880F991F0A94E2F780955C
:1027400084238C9383C08B818130A1F4A8E3B0E013
:10275000E8E3F0E08081482F8A81282F30E081E093
:1027600090E0022E02C0880F991F0A94E2F7842B92
:102770008C936CC0A8E3B0E0E8E3F0E08081482FE0
:102780008A81282F30E081E090E0022E02C0880F7D
:10279000991F0A94E2F7809584238C9357C08B810C
:1027A0008130A1F4A5E3B0E0E5E3F0E08081482FBB
:1027B0008A81282F30E081E090E0022E02C0880F4D
:1027C000991F0A94E2F7842B8C9340C0A5E3B0E0F4
:1027D000E5E3F0E08081482F8A81282F30E081E016
:1027E00090E0022E02C0880F991F0A94E2F78095AC
:1027F00084238C932BC08B818130A1F4A2E3B0E0C1
:10280000E2E3F0E08081482F8A81282F30E081E0E8
:1028100090E0022E02C0880F991F0A94E2F7842BE1
:102820008C9314C0A2E3B0E0E2E3F0E08081482F93
:102830008A81282F30E081E090E0022E02C0880FCC
:10284000991F0A94E2F7809584238C930F900F9040
:102850000F900F900F90CF91DF910895DF93CF935A
:1028600000D000D00F92CDB7DEB789836A834B8347
:102870008981282F30E03D832C838C819D8181309C
:10288000910501F12C813D81223031052CF48C81A0
:102890009D81009761F036C02C813D812230310549
:1028A000E1F08C819D818330910511F12BC0ABE368
:1028B000B0E0EBE3F0E090818B8198238A81892B53
:1028C0008C9320C0A8E3B0E0E8E3F0E090818B8136
:1028D00098238A81892B8C9315C0A5E3B0E0E5E3AA
:1028E000F0E090818B8198238A81892B8C930AC098
:1028F000A2E3B0E0E2E3F0E090818B8198238A814B
:10290000892B8C930F900F900F900F900F90CF9179
:10291000DF910895DF93CF9300D000D00F92CDB711
:10292000DEB78A836B8319828A81282F30E03D834A
:102930002C834C815D814130510579F18C819D81E1
:102940008230910534F42C813D812115310569F0E7
:102950006BC04C815D8142305105B9F18C819D8104
:102960008330910509F449C05FC0E9E3F0E080815C
:10297000282F30E08B81882F90E0A90102C0559567
:1029800047958A95E2F7CA0181709070882319F003
:1029900081E0898349C0198247C0E6E3F0E0808185
:1029A000282F30E08B81882F90E0A90102C0559537
:1029B00047958A95E2F7CA0181709070882319F0D3
:1029C00081E0898331C019822FC0E3E3F0E0808188
:1029D000282F30E08B81882F90E0A90102C0559507
:1029E00047958A95E2F7CA0181709070882319F0A3
:1029F00081E0898319C0198217C0E0E3F0E080818B
:102A0000282F30E08B81882F90E0A90102C05595D6
:102A100047958A95E2F7CA0181709070882319F072
:102A200081E0898301C0198289810F900F900F90F6
:102A30000F900F90CF91DF910895DF93CF9300D047
:102A400000D0CDB7DEB789836A838981282F30E033
:102A50003C832B838B819C818130910549F12B81B3
:102A60003C81223031052CF48B819C81009761F0F0
:102A70005AC02B813C812230310571F18B819C81C0
:102A800083309105E9F14FC0ABE3B0E0EBE3F0E058
:102A90008081482F8A81282F30E081E090E0022E4B
:102AA00002C0880F991F0A94E2F784278C933BC0D9
:102AB000A8E3B0E0E8E3F0E08081482F8A81282F86
:102AC00030E081E090E0022E02C0880F991F0A9446
:102AD000E2F784278C9327C0A5E3B0E0E5E3F0E0BC
:102AE0008081482F8A81282F30E081E090E0022EFB
:102AF00002C0880F991F0A94E2F784278C9313C0B1
:102B0000A2E3B0E0E2E3F0E08081482F8A81282F41
:102B100030E081E090E0022E02C0880F991F0A94F5
:102B2000E2F784278C930F900F900F900F90CF9126
:102B3000DF910895DF93CF9300D000D0CDB7DEB7FB
:102B400089836A838981282F30E03C832B838B81A2
:102B50009C818130910549F12B813C8122303105E6
:102B60002CF48B819C81009761F05AC02B813C81B1
:102B70002230310571F18B819C8183309105E9F11F
:102B80004FC0ABE3B0E0EBE3F0E08081482F8A81F7
:102B9000282F30E081E090E0022E02C0880F991FBC
:102BA0000A94E2F7842B8C933BC0A8E3B0E0E8E3FF
:102BB000F0E08081482F8A81282F30E081E090E08A
:102BC000022E02C0880F991F0A94E2F7842B8C937F
:102BD00027C0A5E3B0E0E5E3F0E08081482F8A81DB
:102BE000282F30E081E090E0022E02C0880F991F6C
:102BF0000A94E2F7842B8C9313C0A2E3B0E0E2E3E3
:102C0000F0E08081482F8A81282F30E081E090E039
:102C1000022E02C0880F991F0A94E2F7842B8C932E
:102C20000F900F900F900F90CF91DF910895991B07
:102C300079E004C0991F961708F0961B881F7A95B3
:102C4000C9F7809508952F923F924F925F926F92AD
:102C50007F928F929F92AF92BF92CF92DF92EF922C
:102C6000FF920F931F93CF93DF93CDB7DEB7CA1BAD
:102C7000DB0B0FB6F894DEBF0FBECDBF09942A88D8
:102C8000398848885F846E847D848C849B84AA8480
:102C9000B984C884DF80EE80FD800C811B81AA810D
:102CA000B981CE0FD11D0FB6F894DEBF0FBECDBFD8
:102CB000ED010895AEE0B0E0E0E6F6E10C943116E7
:102CC0000D891E8986E08C831A8309838FEF9FE725
:102CD0009E838D839E01275E3F4FCE0101966F89B3
:102CE000788DA9010E947E162F813885020F131F4F
:102CF000F80110822E96E4E00C944D16ABE0B0E0A3
:102D0000E4E8F6E10C9423163C012B015A01FC0186
:102D100017821682838181FD03C06FEF7FEFC6C1EA
:102D20009AE0892E1E010894211C311CF301238195
:102D3000F20123FD859123FF81912F01882309F45E
:102D4000B2C1853239F423FD859123FF81912F0192
:102D5000853229F490E0B3010E947118E7CF982FD3
:102D6000FF24EE249924FFE1FF15D0F09B3269F097
:102D70009C3228F4903259F0933291F40EC09D3277
:102D800049F0903369F441E024C052E0F52A84E030
:102D9000F82A28C098E0F92A25C0E0E1FE2A22C0DE
:102DA000F7FC29C0892F80538A3070F4F6FE05C0E5
:102DB000989C902C1124980E15C0E89CE02C1124AE
:102DC000E80EF0E2FF2A0EC09E3229F4F6FC6BC139
:102DD00040E4F42A07C09C3619F450E8F52A02C0F2
:102DE000983649F4F20123FD959123FF91912F012B
:102DF000992309F0B8CF892F8554833018F0805279
:102E0000833038F444E050E0A40EB51E5FE35983EC
:102E10000FC0933631F0933779F0933509F056C0EF
:102E200020C0F5018081898342E050E0A40EB51EE8
:102E3000610101E010E012C0F501C080D180F6FC14
:102E400003C06FEF7FEF02C0692D70E042E050E0F9
:102E5000A40EB51EC6010E9466188C015FE7F5221C
:102E600014C0F501C080D180F6FC03C06FEF7FEF86
:102E700002C0692D70E042E050E0A40EB51EC6010C
:102E80000E945B188C0150E8F52AF3FE07C01AC0B7
:102E900080E290E0B3010E947118EA948E2D90E0D8
:102EA00008171907A8F30EC0F601F7FC8591F7FE85
:102EB00081916F0190E0B3010E947118E110EA94D2
:102EC000015010400115110579F7EAC0943611F050
:102ED000993669F5F7FE08C0F501208131814281FC
:102EE000538184E090E00AC0F501808191819C01CA
:102EF000442737FD4095542F82E090E0A80EB91E7C
:102F00009FE6F92257FF09C05095409530952195CD
:102F10003F4F4F4F5F4FE0E8FE2ACA01B901A101C0
:102F20002AE030E00E949D18D82ED21840C0953774
:102F300029F41F2D1F7E2AE030E01DC01F2D197FB0
:102F40009F3661F0903720F4983509F0ACC00FC07F
:102F5000903739F0983709F0A6C004C028E030E077
:102F60000AC0106114FD146020E130E004C014FDBB
:102F7000166020E132E017FF08C0F5016081718121
:102F80008281938144E050E008C0F5018081918105
:102F9000BC0180E090E042E050E0A40EB51EA1012B
:102FA0000E949D18D82ED2188FE7F82EF122F6FE37
:102FB0000BC05EEFF522D91438F4F4FE07C0F2FC22
:102FC00005C08FEEF82202C01D2D01C0192DF4FEA0
:102FD0000DC0FE01ED0DF11D8081803319F499EED5
:102FE000F92208C01F5FF2FE05C003C08F2D86784E
:102FF00009F01F5F0F2DF3FC14C0F0FE0FC01E156B
:1030000010F09D2C0BC09D2C9E0C911A1E2D06C0FD
:1030100080E290E0B3010E9471181F5F1E15C0F39B
:1030200004C01E1510F4E11A01C0EE2404FF0FC005
:1030300080E390E0B3010E94711802FF1DC001FD02
:1030400003C088E790E00EC088E590E00BC0802FB9
:10305000867891F001FF02C08BE201C080E2F7FCAC
:103060008DE290E0B3010E94711806C080E390E009
:10307000B3010E9471189A94D914C0F3DA94F10143
:10308000ED0DF11D808190E0B3010E947118DD20EB
:10309000A9F706C080E290E0B3010E947118EA949B
:1030A000EE20C1F743CEF30166817781CB012B96E9
:1030B000E2E10C943F16FC01059061507040011054
:1030C000D8F7809590958E0F9F1F0895FC01615051
:1030D000704001900110D8F7809590958E0F9F1F3A
:1030E00008950F931F93CF93DF938C01EB018B8196
:1030F00081FF1BC082FF0DC02E813F818C819D818D
:103100002817390764F4E881F9810193F983E8838A
:1031100006C0E885F985802F0995892B31F48E81C9
:103120009F8101969F838E8302C00FEF1FEFC8011E
:10313000DF91CF911F910F910895FA01AA272830AE
:1031400051F1203181F1E8946F936E7F6E5F7F4F74
:103150008F4F9F4FAF4FB1E03ED0B4E03CD0670FF0
:10316000781F891F9A1FA11D680F791F8A1F911D43
:10317000A11D6A0F711D811D911DA11D20D009F493
:1031800068943F912AE0269F11243019305D3193D5
:10319000DEF6CF010895462F4770405D4193B3E0BE
:1031A0000FD0C9F7F6CF462F4F70405D4A3318F065
:1031B000495D31FD4052419302D0A9F7EACFB4E016
:1031C000A6959795879577956795BA95C9F70097CE
:1031D0006105710508959B01AC010A2E069457956F
:1031E000479537952795BA95C9F7620F731F841FC6
:0A31F000951FA01D0895F894FFCF6D
:1031FA00202020200025640025312E3266000000A0
:10320A00000000000000000102020303030304049B
:10321A00040404040404050505050505050505055A
:10322A00050505050505060606060606060606063A
:10323A000606060606060606060606060606060624
:10324A00060606060606070707070707070707070A
:10325A0007070707070707070707070707070707F4
:10326A0007070707070707070707070707070707E4
:10327A0007070707070707070707070707070707D4
:10328A0007070707070708080808080808080808BA
:10329A0008080808080808080808080808080808A4
:1032AA000808080808080808080808080808080894
:1032BA000808080808080808080808080808080884
:1032CA000808080808080808080808080808080874
:1032DA000808080808080808080808080808080864
:1032EA000808080808080808080808080808080854
:1032FA000808080808080808080808080808080844
:10330A00080808080808313233413435364237385C
:06331A0039432A30234470
:00000001FF
